S0160000426F746F6573204D6F746F7265732E7372656399
S11300000C9434000C943E000C943E000C943E007E
S11300100C943E000C943E000C943E000C943E0064
S11300200C943E000C943E000C943E000C943E0054
S11300300C943E000C943E000C943E000C943E0044
S11300400C943E000C943E000C943E000C943E0034
S11300500C943E000C943E000C943E000C943E0024
S11300600C943E000C943E0011241FBECFEFD8E048
S1130070DEBFCDBF0E9440000C947B000C940000B6
S113008084B18C6384B986E087B988B985B18C63FF
S113009085B9319915C02D982FEF83ED90E3215048
S11300A080409040E1F700C000002C982FEF83EDD2
S11300B090E3215080409040E1F700C00000E9CF78
S11300C0329915C02B982FEF83ED90E32150804097
S11300D09040E1F700C000002A982FEF83ED90E3F1
S11300E0215080409040E1F700C00000D2CF85B19C
S10D00F08C6385B9CECFF894FFCFDE
S9030000FC
