:100000000C9434000C943E000C943E000C943E0082
:100010000C943E000C943E000C943E000C943E0068
:100020000C943E000C943E000C943E000C943E0058
:100030000C943E000C943E000C943E000C943E0048
:100040000C943E000C943E000C943E000C943E0038
:100050000C943E000C943E000C943E000C943E0028
:100060000C943E000C943E0011241FBECFEFD8E04C
:10007000DEBFCDBF0E944D000C947A000C940000AE
:10008000EAE7F0E0808180648083808186FDFDCF97
:100090008091780090917900089583E084B98CE094
:1000A00085B92898299880E280937E0085E4809322
:1000B0007C0087E880937A00C0E0D0E001C0EC01CA
:1000C0000E9440008C3023E0920754F0CC30D340A3
:1000D000B4F7289A29981B99FECF28982998EFCF32
:1000E000CC30D34064F32898299A1A99FECF2898E7
:0800F0002998E5CFF894FFCF39
:00000001FF
