:100000000C9434000C943E000C943E000C943E0082
:100010000C943E000C943E000C943E000C943E0068
:100020000C943E000C943E000C943E000C943E0058
:100030000C943E000C943E000C943E000C943E0048
:100040000C943E000C943E000C943E000C943E0038
:100050000C943E000C943E000C943E000C943E0028
:100060000C943E000C943E0011241FBECFEFD8E04C
:10007000DEBFCDBF0E9440000C946E000C940000C7
:10008000559AE0E8F0E0808182688083E1E8F0E062
:1000900080818A6180838FE39CE9909387008093BD
:1000A0008600E8E8F0E023E233E18FEA94E0318370
:1000B00020834FEF53E264EF415050406040E1F73E
:1000C00000C00000918380834FEF53E264EF415002
:1000D00050406040E1F700C00000E9CFF894FFCF46
:00000001FF
