S00F000050574D206C65642E73726563CC
S11300000C9434000C943E000C943E000C943E007E
S11300100C943E000C943E000C943E000C943E0064
S11300200C943E000C943E000C943E000C943E0054
S11300300C943E000C943E000C943E000C943E0044
S11300400C943E000C943E000C943E000C943E0034
S11300500C943E000C943E000C943E000C943E0024
S11300600C943E000C943E0011241FBECFEFD8E048
S1130070DEBFCDBF0E9440000C9460000C940000D1
S113008088E084B98AB981EF8093B00081E08093DD
S1130090B1001092B4001092B300A3EBB0E0E4EB13
S11300A0F0E08FEF8C9380832FEF31EE94E02150BA
S11300B030409040E1F700C00000855099F7F1CF3F
S10700C0F894FFCFDE
S9030000FC
