:100000000C9434000C943E000C943E000C943E0082
:100010000C943E000C943E000C943E000C943E0068
:100020000C943E000C943E000C943E000C943E0058
:100030000C943E000C943E000C943E000C943E0048
:100040000C943E000C943E000C943E000C943E0038
:100050000C943E000C943E000C943E000C943E0028
:100060000C943E000C943E0011241FBECFEFD8E04C
:10007000DEBFCDBF0E9440000C9464000C940000D1
:1000800084B18C6384B986E087B988B985B18C6303
:1000900085B931990BC02D982FEF83ED90E3215056
:1000A00080409040E1F700C000002C983299F1CFD9
:1000B0002B982FEF83ED90E3215080409040E1F7A3
:0C00C00000C000002A98E5CFF894FFCFA4
:00000001FF
