S00F0000777332383132622E73726563FC
S11300000C9434000C9446000C9446000C94460066
S11300100C9446000C9446000C9446000C94460044
S11300200C9446000C9446000C9446000C94460034
S11300300C9446000C9446000C9446000C94460024
S11300400C9446000C9446000C9446000C94460014
S11300500C9446000C9446000C9446000C94460004
S11300600C9446000C94460011241FBECFEFD8E038
S1130070DEBFCDBF22E0A0E0B1E001C01D92A038F8
S1130080B207E1F70E94AA000C94D1000C9400007E
S11300908FEF85B9000000000000000000000000A0
S11300A0000000000000000000000000000000004C
S11300B00000000015B800000000000000000895D2
S11300C08FEF85B9000000000000000015B80000A3
S11300D0000000000000000000000000000000001C
S11300E0000000000000000000000000000008956F
S11300F0EF92FF920F931F93CF93DF9300E011E0F1
S11301000F2EF0E8EF2EF2E0FF2EF02D19C0F801CB
S1130110808191810C2E02C0959587950A94E2F70F
S113012080FF03C00E94480002C00E946000219624
S1130130C830D10561F70E5F1F4FE016F10619F0C4
S1130140C0E0D0E0E4CFDF91CF911F910F91FF90F9
S1130150EF9008958FEF84B9E0E0F1E0118210820E
S11301608FEF90E093838283158214829783868332
S113017011861086138612861586148617861686AF
S1130180918B808B938B828B158A148A978B868BA9
S1130190118E108E938F828F958F848F0E9478009A
S10901A0FFCFF894FFCF2D
S9030000FC
